:060000000A128A1100291A
:10000800F000030EF1000B1965210B187A210C186A
:0C0018006C21710E8300F00E700E0900C8
:100200002D21192120214921592103138312C921AC
:100210000619192206190A290618132206180E298A
:10022000861816228618122986191C228619162964
:100230000729031383160F140F138F160F160800C8
:100240000313831681128111011581140114031304
:100250008312F83081000B11080003178316880100
:10026000890103138316870108108810081188116B
:100270000812051085100511851205130614861441
:10028000061586150616031383128701880185015A
:10029000080003138312901090119016101610137B
:1002A000101403138312C2308F00F7308E000C102D
:1002B0000800031383161616031383128B178B166D
:1002C0000B118B150B100C10080003138312FA305E
:1002D00081000B119F21080003138312C2308F008D
:1002E000F7308E000C10A00A20083C3A031DB10A1A
:1002F000E9210800061AB00A061A7C2901303002EA
:10030000031D87290514851005110B100800023004
:100310003002031D90290510851405110B100800EB
:1003200003303002031D99210510851005150B10AF
:10033000080004303002031D0800B0010B10081043
:1003400088100811881108122518B229A518B82993
:100350002519BE29A519C4292C08870008140130C5
:10036000A50608002B08870088140330A50608009E
:100370002D08870008150630A50608002E088700FE
:1003800088150C30A50608002F0887000816A5015F
:10039000080033080022AB0034080022AC002A0811
:1003A0000022AD003B080022AE003A080022AF0058
:1003B00008003B080022AB003A080022AC002A08E3
:1003C0000022AD0029080022AE0028080022AF005C
:1003D00008003108323C031DBA0AEE290A303A02FD
:1003E000031D0800F329BA00BB0A0A303B020319B7
:1003F0000800B50A3508183A03190F22B30A0A3063
:100400008A018A140F3982073F3406345B344F3433
:1004100066346D347D3407347F346F3477347C3404
:1004200039345E3479347134E9210800B103E921AB
:0E04300008001010051708001014051308002E
:04400E00C430FF3F7C
:00000001FF
